{
  "contractName": "Election",
  "abi": [
    {
      "inputs": [],
      "payable": false,
      "stateMutability": "nonpayable",
      "type": "constructor"
    },
    {
      "constant": true,
      "inputs": [
        {
          "internalType": "uint256",
          "name": "",
          "type": "uint256"
        }
      ],
      "name": "candidates",
      "outputs": [
        {
          "internalType": "uint256",
          "name": "id",
          "type": "uint256"
        },
        {
          "internalType": "string",
          "name": "name",
          "type": "string"
        },
        {
          "internalType": "uint256",
          "name": "voteCount",
          "type": "uint256"
        }
      ],
      "payable": false,
      "stateMutability": "view",
      "type": "function"
    },
    {
      "constant": true,
      "inputs": [],
      "name": "candidatesCount",
      "outputs": [
        {
          "internalType": "uint256",
          "name": "",
          "type": "uint256"
        }
      ],
      "payable": false,
      "stateMutability": "view",
      "type": "function"
    },
    {
      "constant": true,
      "inputs": [],
      "name": "voterCount",
      "outputs": [
        {
          "internalType": "uint256",
          "name": "",
          "type": "uint256"
        }
      ],
      "payable": false,
      "stateMutability": "view",
      "type": "function"
    },
    {
      "constant": true,
      "inputs": [
        {
          "internalType": "uint256",
          "name": "",
          "type": "uint256"
        }
      ],
      "name": "voters",
      "outputs": [
        {
          "internalType": "uint256",
          "name": "id",
          "type": "uint256"
        },
        {
          "internalType": "string",
          "name": "name",
          "type": "string"
        },
        {
          "internalType": "bool",
          "name": "hasVoted",
          "type": "bool"
        }
      ],
      "payable": false,
      "stateMutability": "view",
      "type": "function"
    },
    {
      "constant": false,
      "inputs": [
        {
          "internalType": "uint256",
          "name": "_candidateId",
          "type": "uint256"
        },
        {
          "internalType": "uint256",
          "name": "_voterId",
          "type": "uint256"
        }
      ],
      "name": "vote",
      "outputs": [],
      "payable": false,
      "stateMutability": "nonpayable",
      "type": "function"
    }
  ],
  "bytecode": "0x608060405234801561001057600080fd5b5061005760016040518060400160405280600981526020017f4a6f686e205769636b000000000000000000000000000000000000000000000081525061017460201b60201c565b61009d60026040518060400160405280600a81526020017f42726f776e6579204a720000000000000000000000000000000000000000000081525061017460201b60201c565b6100e360036040518060400160405280600f81526020017f48656c656e612057696c6c69616d73000000000000000000000000000000000081525061017460201b60201c565b61012960046040518060400160405280600781526020017f566f7465722031000000000000000000000000000000000000000000000000008152506101ec60201b60201c565b61016f60056040518060400160405280600781526020017f566f7465722032000000000000000000000000000000000000000000000000008152506101ec60201b60201c565b610322565b600260008154809291906001019190505550604051806060016040528083815260200182815260200160008152506000808481526020019081526020016000206000820151816000015560208201518160010190805190602001906101da92919061027d565b50604082015181600201559050505050565b6003600081548092919060010191905055506040518060600160405280838152602001828152602001600015158152506001600084815260200190815260200160002060008201518160000155602082015181600101908051906020019061025592919061027d565b5060408201518160020160006101000a81548160ff0219169083151502179055509050505050565b828054600181600116156101000203166002900490600052602060002090601f016020900481019282601f106102be57805160ff19168380011785556102ec565b828001600101855582156102ec579182015b828111156102eb5782518255916020019190600101906102d0565b5b5090506102f991906102fd565b5090565b61031f91905b8082111561031b576000816000905550600101610303565b5090565b90565b6104ef806103316000396000f3fe608060405234801561001057600080fd5b50600436106100575760003560e01c80632d35a8a21461005c5780633477ee2e1461007a57806342169e481461012f578063b384abef1461014d578063da58c7d914610185575b600080fd5b61006461023e565b6040518082815260200191505060405180910390f35b6100a66004803603602081101561009057600080fd5b8101908080359060200190929190505050610244565b6040518084815260200180602001838152602001828103825284818151815260200191508051906020019080838360005b838110156100f25780820151818401526020810190506100d7565b50505050905090810190601f16801561011f5780820380516001836020036101000a031916815260200191505b5094505050505060405180910390f35b610137610306565b6040518082815260200191505060405180910390f35b6101836004803603604081101561016357600080fd5b81019080803590602001909291908035906020019092919050505061030c565b005b6101b16004803603602081101561019b57600080fd5b81019080803590602001909291905050506103eb565b604051808481526020018060200183151515158152602001828103825284818151815260200191508051906020019080838360005b838110156102015780820151818401526020810190506101e6565b50505050905090810190601f16801561022e5780820380516001836020036101000a031916815260200191505b5094505050505060405180910390f35b60025481565b6000602052806000526040600020600091509050806000015490806001018054600181600116156101000203166002900480601f0160208091040260200160405190810160405280929190818152602001828054600181600116156101000203166002900480156102f65780601f106102cb576101008083540402835291602001916102f6565b820191906000526020600020905b8154815290600101906020018083116102d957829003601f168201915b5050505050908060020154905083565b60035481565b6001600082815260200190815260200160002060020160009054906101000a900460ff161561033a57600080fd5b60008211801561035e57506000808381526020019081526020016000206000015482145b801561036a5750600081115b801561038b5750600160008281526020019081526020016000206000015481145b61039457600080fd5b600180600083815260200190815260200160002060020160006101000a81548160ff021916908315150217905550600080838152602001908152602001600020600201600081548092919060010191905055505050565b6001602052806000526040600020600091509050806000015490806001018054600181600116156101000203166002900480601f01602080910402602001604051908101604052809291908181526020018280546001816001161561010002031660029004801561049d5780601f106104725761010080835404028352916020019161049d565b820191906000526020600020905b81548152906001019060200180831161048057829003601f168201915b5050505050908060020160009054906101000a900460ff1690508356fea265627a7a72315820c094033b5b867ac0f3872d4cc97f706d2e44bbe19a6eead547bc672e60ab1aa164736f6c63430005100032",
  "source": "// SPDX-License-Identifier: MIT\npragma solidity >=0.5.2;\n\ncontract Election {\n    struct Candidate {\n        uint256 id;\n        string name;\n        uint256 voteCount;\n    }\n\n    struct Voter {\n        uint256 id;\n        string name;\n        bool hasVoted;\n    }\n\n    mapping(uint256 => Candidate) public candidates;\n\n    mapping(uint256 => Voter) public voters;\n\n    uint256 public candidatesCount;\n\n    uint256 public voterCount;\n\n    // voted event\n    //event votedEvent(uint256 indexed _candidateId);\n\n    constructor() public {\n        addCandidate(1, \"John Wick\");\n        addCandidate(2, \"Browney Jr\");\n        addCandidate(3, \"Helena Williams\");\n        addVoter(4, \"Voter 1\");\n        addVoter(5, \"Voter 2\");\n    }\n\n    function addCandidate(uint256 _id, string memory _name) private {\n        candidatesCount++;\n        candidates[_id] = Candidate(_id, _name, 0);\n    }\n\n    function addVoter(uint256 _id, string memory _name) private {\n        voterCount++;\n        voters[_id] = Voter(_id, _name, false);\n    }\n\n    function vote(uint256 _candidateId, uint256 _voterId) public {\n        // require that they haven't voted before\n        require(!voters[_voterId].hasVoted);\n\n        // require a valid candidate and valid voter\n        require(\n            _candidateId > 0 &&\n                _candidateId == candidates[_candidateId].id &&\n                _voterId > 0 &&\n                _voterId == voters[_voterId].id\n        );\n\n        // record that voter has voted\n        voters[_voterId].hasVoted = true;\n\n        // update candidate vote Count\n        candidates[_candidateId].voteCount++;\n\n        // trigger voted event\n        //emit votedEvent(_candidateId);\n    }\n}\n",
  "sourcePath": "/Users/rajanjaiswal/Desktop/IT 254/voting_dapp/blockchain/contracts/Election.sol",
  "compiler": {
    "name": "solc",
    "version": "0.5.16+commit.9c3226ce.Emscripten.clang"
  },
  "schemaVersion": "3.4.3",
  "updatedAt": "2021-11-23T20:44:54.249Z",
  "networkType": "ethereum",
  "devdoc": {
    "methods": {}
  },
  "userdoc": {
    "methods": {}
  }
}